{
  "_format": "hh-sol-artifact-1",
  "contractName": "nUSD",
  "sourceName": "contracts/nUsdToken.sol",
  "abi": [
    {
      "anonymous": false,
      "inputs": [
        {
          "indexed": true,
          "internalType": "address",
          "name": "depositor",
          "type": "address"
        },
        {
          "indexed": false,
          "internalType": "uint256",
          "name": "ethAmount",
          "type": "uint256"
        },
        {
          "indexed": false,
          "internalType": "uint256",
          "name": "nusdAmount",
          "type": "uint256"
        }
      ],
      "name": "Deposit",
      "type": "event"
    },
    {
      "anonymous": false,
      "inputs": [
        {
          "indexed": true,
          "internalType": "address",
          "name": "redeemer",
          "type": "address"
        },
        {
          "indexed": false,
          "internalType": "uint256",
          "name": "nusdAmount",
          "type": "uint256"
        },
        {
          "indexed": false,
          "internalType": "uint256",
          "name": "ethAmount",
          "type": "uint256"
        }
      ],
      "name": "Redeem",
      "type": "event"
    },
    {
      "inputs": [
        {
          "internalType": "address",
          "name": "",
          "type": "address"
        }
      ],
      "name": "balances",
      "outputs": [
        {
          "internalType": "uint256",
          "name": "",
          "type": "uint256"
        }
      ],
      "stateMutability": "view",
      "type": "function"
    },
    {
      "inputs": [],
      "name": "currencyName",
      "outputs": [
        {
          "internalType": "string",
          "name": "",
          "type": "string"
        }
      ],
      "stateMutability": "view",
      "type": "function"
    },
    {
      "inputs": [],
      "name": "decimals",
      "outputs": [
        {
          "internalType": "uint8",
          "name": "",
          "type": "uint8"
        }
      ],
      "stateMutability": "view",
      "type": "function"
    },
    {
      "inputs": [],
      "name": "depositETH",
      "outputs": [],
      "stateMutability": "payable",
      "type": "function"
    },
    {
      "inputs": [
        {
          "internalType": "uint256",
          "name": "nusdAmount",
          "type": "uint256"
        }
      ],
      "name": "redeemNUSD",
      "outputs": [],
      "stateMutability": "nonpayable",
      "type": "function"
    },
    {
      "inputs": [],
      "name": "totalSupply",
      "outputs": [
        {
          "internalType": "uint256",
          "name": "",
          "type": "uint256"
        }
      ],
      "stateMutability": "view",
      "type": "function"
    }
  ],
  "bytecode": "0x60806040526040518060400160405280600481526020017f6e555344000000000000000000000000000000000000000000000000000000008152506000908051906020019061004f92919061007e565b506012600160006101000a81548160ff021916908360ff16021790555034801561007857600080fd5b50610182565b82805461008a90610150565b90600052602060002090601f0160209004810192826100ac57600085556100f3565b82601f106100c557805160ff19168380011785556100f3565b828001600101855582156100f3579182015b828111156100f25782518255916020019190600101906100d7565b5b5090506101009190610104565b5090565b5b8082111561011d576000816000905550600101610105565b5090565b7f4e487b7100000000000000000000000000000000000000000000000000000000600052602260045260246000fd5b6000600282049050600182168061016857607f821691505b6020821081141561017c5761017b610121565b5b50919050565b6109dd806101916000396000f3fe6080604052600436106100555760003560e01c806318160ddd1461005a57806327e235e314610085578063313ce567146100c257806386701186146100ed578063afb8d87714610118578063f6326fb314610141575b600080fd5b34801561006657600080fd5b5061006f61014b565b60405161007c91906104dc565b60405180910390f35b34801561009157600080fd5b506100ac60048036038101906100a7919061055a565b610151565b6040516100b991906104dc565b60405180910390f35b3480156100ce57600080fd5b506100d7610169565b6040516100e491906105a3565b60405180910390f35b3480156100f957600080fd5b5061010261017c565b60405161010f9190610657565b60405180910390f35b34801561012457600080fd5b5061013f600480360381019061013a91906106a5565b61020a565b005b6101496103ea565b005b60035481565b60026020528060005260406000206000915090505481565b600160009054906101000a900460ff1681565b6000805461018990610701565b80601f01602080910402602001604051908101604052809291908181526020018280546101b590610701565b80156102025780601f106101d757610100808354040283529160200191610202565b820191906000526020600020905b8154815290600101906020018083116101e557829003601f168201915b505050505081565b6000811161024d576040517f08c379a00000000000000000000000000000000000000000000000000000000081526004016102449061077f565b60405180910390fd5b80600260003373ffffffffffffffffffffffffffffffffffffffff1673ffffffffffffffffffffffffffffffffffffffff1681526020019081526020016000205410156102cf576040517f08c379a00000000000000000000000000000000000000000000000000000000081526004016102c6906107eb565b60405180910390fd5b60006002826102de919061083a565b905081600260003373ffffffffffffffffffffffffffffffffffffffff1673ffffffffffffffffffffffffffffffffffffffff168152602001908152602001600020600082825461032f9190610894565b9250508190555081600360008282546103489190610894565b925050819055503373ffffffffffffffffffffffffffffffffffffffff166108fc829081150290604051600060405180830381858888f19350505050158015610395573d6000803e3d6000fd5b503373ffffffffffffffffffffffffffffffffffffffff167fe5b754fb1abb7f01b499791d0b820ae3b6af3424ac1c59768edb53f4ec31a92983836040516103de9291906108c8565b60405180910390a25050565b600034905060006002826103fe9190610920565b905080600260003373ffffffffffffffffffffffffffffffffffffffff1673ffffffffffffffffffffffffffffffffffffffff168152602001908152602001600020600082825461044f9190610951565b9250508190555080600360008282546104689190610951565b925050819055503373ffffffffffffffffffffffffffffffffffffffff167f90890809c654f11d6e72a28fa60149770a0d11ec6c92319d6ceb2bb0a4ea1a1583836040516104b79291906108c8565b60405180910390a25050565b6000819050919050565b6104d6816104c3565b82525050565b60006020820190506104f160008301846104cd565b92915050565b600080fd5b600073ffffffffffffffffffffffffffffffffffffffff82169050919050565b6000610527826104fc565b9050919050565b6105378161051c565b811461054257600080fd5b50565b6000813590506105548161052e565b92915050565b6000602082840312156105705761056f6104f7565b5b600061057e84828501610545565b91505092915050565b600060ff82169050919050565b61059d81610587565b82525050565b60006020820190506105b86000830184610594565b92915050565b600081519050919050565b600082825260208201905092915050565b60005b838110156105f85780820151818401526020810190506105dd565b83811115610607576000848401525b50505050565b6000601f19601f8301169050919050565b6000610629826105be565b61063381856105c9565b93506106438185602086016105da565b61064c8161060d565b840191505092915050565b60006020820190508181036000830152610671818461061e565b905092915050565b610682816104c3565b811461068d57600080fd5b50565b60008135905061069f81610679565b92915050565b6000602082840312156106bb576106ba6104f7565b5b60006106c984828501610690565b91505092915050565b7f4e487b7100000000000000000000000000000000000000000000000000000000600052602260045260246000fd5b6000600282049050600182168061071957607f821691505b6020821081141561072d5761072c6106d2565b5b50919050565b7f496e76616c6964206e55534420616d6f756e7400000000000000000000000000600082015250565b60006107696013836105c9565b915061077482610733565b602082019050919050565b600060208201905081810360008301526107988161075c565b9050919050565b7f496e73756666696369656e74206e5553442062616c616e636500000000000000600082015250565b60006107d56019836105c9565b91506107e08261079f565b602082019050919050565b60006020820190508181036000830152610804816107c8565b9050919050565b7f4e487b7100000000000000000000000000000000000000000000000000000000600052601160045260246000fd5b6000610845826104c3565b9150610850836104c3565b9250817fffffffffffffffffffffffffffffffffffffffffffffffffffffffffffffffff04831182151516156108895761088861080b565b5b828202905092915050565b600061089f826104c3565b91506108aa836104c3565b9250828210156108bd576108bc61080b565b5b828203905092915050565b60006040820190506108dd60008301856104cd565b6108ea60208301846104cd565b9392505050565b7f4e487b7100000000000000000000000000000000000000000000000000000000600052601260045260246000fd5b600061092b826104c3565b9150610936836104c3565b925082610946576109456108f1565b5b828204905092915050565b600061095c826104c3565b9150610967836104c3565b9250827fffffffffffffffffffffffffffffffffffffffffffffffffffffffffffffffff0382111561099c5761099b61080b565b5b82820190509291505056fea2646970667358221220d74b638ba3b6d912a5f88a60e076c3e86e18c19e0c6600ad6c33961d9f258b3464736f6c634300080b0033",
  "linkReferences": {},
  "deployedLinkReferences": {}
}